000001San Pablo Nursery             1324 San Pablo Dam Road  San Pablo           CA000094806Karen Graham             55591223415559122342000013015592442510200000
000002Evergreen Nursery             583 Route 1              Lynnwood            WA000098046Mark Davis               55596890005559689001000026045598093630400000
000003Troy's Trees                  612 El Dorado Hills Blvd.Athena              OR000097813Troy Lee                 55535389230000000000000039030001188150140000
000004Main Street Plants            87 Main Street           Incline Village     NV000089450Jim Drake                55528712830000000000000052020001172680500000
000005Orange Nursery                1829 Sunshine Place      Orange              CA000092668Merri Gilbert            55538270005553827007000065015539427280800000
000006Eagle Plants and Gifts        213 Taylor Road          Carson City         NV000089706Mike Durrell             55587312340000000000000078020001141740200000
000007Enviroscapes Nursery & Design 98 Fair Oaks Blvd.       Glendale            CA000091204Clive Twyman             55587781820000000000000091010001126270210000
000008Broadway Nursery              57321 High Street        Beaverton           OR000097006Max Henry                55538138805553815683000104035539267630420000
000009J V Trees & Plants            513 Santa Maria Parkway  Costa Mesa          CA000092626Sunny Henderson          55598790005559878000000117015599875330450000
000010Redmond Nursery               81 Smith Abbott Lane     Redmond             WA000098052Darryl Massman           55572289545557228273000030045573481590700000
000011A Beautiful Garden Co.        45 Jackson Road          Berkley             CA000094710Jacob Prentice           55598712340000000000000043010001183390800000
000012Blue Ribbon Garden Supplies   900 South Franklin       Bow                 WA000098232Frank Watson             55598982110000000000000056040001167920700000
000013Valley Landscaping            327 Auburn Blvd.         Valencia            CA000093155Oliver Ward              55578410005557841999000069015579572440250000
000014Grau-Hall Nursery Co.         12 Enterprise Blvd.      Portland            OR000097007Austin Williams          55567643775556764823000082035568785210700000
000015Earth Art                     1000 West Manzanita      Eugene              OR000097405Warren Lonsdale          55577710005557771001000095035578831521000000
000016Patten's Lawn & Garden        621 Connecticut Circle   Corvalis            OR000097330Kevin Patten             55524212830000000000000108030001106040300000
000017Modern Landscaping & Supply   300 Center Parkway       Beaverton           OR000097006Marshall Peterson        55592197005559211253000121035593203100200000
000018The Urban Farmer              8141 Belvedere Avenue    Berkley             CA000094710Morris Taylor            55578723835557871238000034015579906480400000
000019Valley Nursery                8797 Walnut Drive        San Pablo           CA000094806Bryan Miller             55598512355559851236000047015599690990300000
000020Delta Landscape Supply        7767 Cedar Oak Way       Lynnwood            WA000098046Don Elkins               55598923710000000000000060040001163160300000
000021Crestview Nursery             4500 Fruitridge Way      Reno                NV000089510Drake Davis              55552323985555232399000073025553471680150000
000022West Coast Nursery            3812 Westmont Avenue     Costa Mesa          CA000092626Mary Arden               55598923810000000000000086010001132220500000
000023Williams Garden Supply        34 Orange Grove Avenue   Orange              CA000092668Tom Firetag              55572717755557271798000099015573834730700000
000024Seattle Garden Supply         2500 Parkway Drive       Seattle             WA000098109Laura Nelson             55554511005555451827000112045555619550200000
000025Huebsch Nursery               970 Market Blvd.         Las Vegas           NV000089101Marvin Huebsch           55524512005552451276000025025525717570400000
000026Cityscape Nursery             423 Allentown Way        Seattle             WA000098109Alex Meyers              55528323820000000000000038040001189340900000
000027Victorian Gardens             1238 Edamshire Way       Bellvue             WA000098007Vicky Addibody           55524391235552432834000051045525502210450000
000028Henderson Plant Supply        813 Galena Drive         Las Vegas           NV000089101Allen Henderson          55524889125552481783000064025525976230950000
000029Eisley's Nursery              988 Rush River Drive     Portland            OR000097007Phillip Tanner           55574684375557461238000077035575755310700000
000030Mickey Mouse                  78 Val Verde             Valencia            CA000093155Nancy Bloom              55595672865559562834000090015596755800300000
000031Childers Nursery              252 Warner Street        Corvalis            OR000097330Richard Childers         55581281220000000000000103030001111990400000
000032Professional Landscaping      126 Moller Way           Glendale            CA000091204Bill Boehem              55585681005558564571000116015586742230800000
000033Freighley's Nursery           1823 Othello Way         Athena              OR000097813Jack Jnutson             55559818650000000000000029030001200050300000
000034Griffith Garden Supply        54 Washington Place      Walnut Creek        CA000094518Grayson Griffith         55548367430000000000000042010001184580500000
000035Patrick Pool & Patio          2 North Market           Eugene              OR000097405Jacob Patrick            55568468845556846886000055035569637970700000
000036Pacific Landscape Design      128 Owenshaw Way         Redmond             WA000098052Wallace Stegner          55562323005556231928000068045563472920400000
000037Liberty Landscaping           87 Ranier Way            Yakima              WA000098907Robert Baker             55567474005556746782000081045568605990700000
000038Jackie the bartender          Booze Alley              Slum City           MA000009999Not with reality         99999999998888888888000029AA8888888880009900
