000001Prius               000001000002000003
000002Corolla             000004000005000006
000003Camry               000001000003000005
000004Mirai               000002000004000006
000005Avalon              000007000008000009
000006Sienna              000010000000000000
000007Highlander          000000000011000000
000008Yaris               000000000000000012
000009RAV4                000002000003000000
000010Supra               000000000004000005
000011Venza               000001000000000006
